:020000040000FA
:060000000A128A11FC2F18
:100F7E008316031385018312031385010514BF30F5
:100F8E00F2003D30F100CB30F000F00BCC2FF10B26
:100F9E00CC2FF20BCC2FD32F8312031305108514F5
:100FAE002730F2000D30F1002630F000F00BDD2F6F
:100FBE00F10BDD2FF20BDD2F0000831203138510D2
:100FCE000515BF30F2003D30F100CB30F000F00BD4
:100FDE00EE2FF10BEE2FF20BEE2FF52F83120313E4
:100FEE000511C52F0A128A11002883010A128A11CF
:020FFE00BF2F03
:02400E00FA3F77
:00000001FF
